:020000040800F2
:1000000000000220050F0008C1420008CD42000890
:10001000D3420008D9420008DF4200080000000077
:10002000000000000000000000000000E5420008A1
:10003000F142000800000000FD42000809430008EA
:10004000490F0008490F0008490F0008490F000830
:10005000490F0008490F0008490F0008490F000820
:10006000490F0008490F0008490F0008490F000810
:10007000490F0008490F0008490F0008490F000800
:10008000490F0008490F0008490F0008490F0008F0
:10009000490F0008490F0008490F000809440008EB
:1000A000490F0008490F0008490F0008490F0008D0
:1000B00069430008E1430008490F0008490F0008A0
:1000C000490F0008490F0008490F00080000000010
:1000D000490F0008490F0008490F0008194300089C
:1000E000490F0008490F0008490F0008490F000890
:1000F000490F0008490F0008490F0008490F000880
:10010000490F0008490F0008490F0008490F00086F
:10011000490F0008490F0008490F0008490F00085F
:10012000490F0008490F0008490F0008490F00084F
:10013000490F0008490F0008490F0008490F00083F
:10014000490F0008490F0008490F0008490F00082F
:1001500000000000490F0008490F0008490F00087F
:10016000490F0008490F00080000000000000000CF
:100170000000000000000000490F0008490F0008BF
:10018000490F000800000000490F0008490F00084F
:10019000000000000000000000000000000000005F
:0801A000490F0008490F000897
:1001A80010B5054C237833B9044B13B10448AFF3A9
:1001B80000800123237010BD780B00200000000090
:1001C80038C2000808B5034B1BB103490348AFF315
:1001D800008008BD000000007C0B002038C2000829
:1001E80081F0004102E000BF83F0004330B54FEAE0
:1001F80041044FEA430594EA050F08BF90EA020F4D
:100208001FBF54EA000C55EA020C7FEA645C7FEADF
:10021800655C00F0E2804FEA5454D4EB5555B8BF02
:100228006D420CDD2C4480EA020281EA030382EA73
:10023800000083EA010180EA020281EA0303362D05
:1002480088BF30BD11F0004F4FEA01314FF4801CD8
:100258004CEA113102D0404261EB410113F0004FEA
:100268004FEA03334CEA133302D0524263EB4303A1
:1002780094EA050F00F0A780A4F10104D5F1200E3F
:100288000DDB02FA0EFC22FA05F2801841F100019A
:1002980003FA0EF2801843FA05F359410EE0A5F16E
:1002A80020050EF1200E012A03FA0EFC28BF4CF09F
:1002B800020C43FA05F3C01851EBE37101F0004555
:1002C80007D54FF0000EDCF1000C7EEB00006EEB62
:1002D8000101B1F5801F1BD3B1F5001F0CD34908EC
:1002E8005FEA30004FEA3C0C04F101044FEA445243
:1002F80012F5800F80F09A80BCF1004F08BF5FEACA
:10030800500C50F1000041EB045141EA050130BDA9
:100318005FEA4C0C404141EB0101013C28BFB1F5BB
:10032800801FE9D291F0000F04BF01460020B1FA06
:1003380081F308BF2033A3F10B03B3F120020CDAD9
:100348000C3208DD02F1140CC2F10C0201FA0CF0B7
:1003580021FA02F10CE002F11402D8BFC2F1200C1C
:1003680001FA02F120FA0CFCDCBF41EA0C019040D2
:10037800E41AA2BF01EB0451294330BD6FEA04041B
:100388001F3C1CDA0C340EDC04F11404C4F1200206
:1003980020FA04F001FA02F340EA030021FA04F318
:1003A80045EA030130BDC4F10C04C4F1200220FA6F
:1003B80002F001FA04F340EA0300294630BD21FAAD
:1003C80004F0294630BD94F0000F83F4801306BF73
:1003D80081F480110134013D4EE77FEA645C18BF67
:1003E8007FEA655C29D094EA050F08BF90EA020FFE
:1003F80005D054EA000C04BF1946104630BD91EAF6
:10040800030F1EBF0021002030BD5FEA545C05D1F8
:100418004000494128BF41F0004130BD14F5800437
:100428003CBF01F5801130BD01F0004545F0FE41AB
:1004380041F470014FF0000030BD7FEA645C1ABFE0
:10044800194610467FEA655C1CBF0B46024650EA17
:10045800013406BF52EA033591EA030F41F4002143
:1004680030BD00BF90F0000F04BF0021704730B5C9
:100478004FF4806404F132044FF000054FF000019E
:1004880050E700BF90F0000F04BF0021704730B55F
:100498004FF4806404F1320410F0004548BF404234
:1004A8004FF000013EE700BF42004FEAE2014FEA89
:1004B80031014FEA02701FBF12F07F4393F07F4F64
:1004C80081F06051704732F07F4208BF704793F067
:1004D8007F4F04BF41F40021704730B54FF460747A
:1004E80001F0004521F000411CE700BF50EA01027D
:1004F80008BF704730B54FF000050AE050EA010226
:1005080008BF704730B511F0004502D5404261EB95
:1005180041014FF4806404F132045FEA915C3FF4D6
:10052800D8AE4FF003025FEADC0C18BF03325FEA73
:10053800DC0C18BF033202EBDC02C2F1200300FA24
:1005480003FC20FA02F001FA03FE40EA0E0021FA49
:1005580002F11444BDE600BF53B94AB9002908BFE7
:1005680000281CBF4FF0FF314FF0FF3000F076B984
:10057800ADF1080C6DE904CE00F006F8DDF804E0F2
:10058800DDE9022304B070472DE9F047089E0D46C7
:1005980004468846002B4DD18A42944668D9B2FA5F
:1005A80082F252B101FA02F3C2F1200120FA01F1FC
:1005B8000CFA02FC41EA030894404FEA1C41B8FBDC
:1005C800F1F71FFA8CFE01FB178807FB0EF0230CCE
:1005D80043EA084398420AD91CEB030307F1FF35A5
:1005E80080F01E81984240F21B81023F63441B1A2F
:1005F800B3FBF1F001FB103300FB0EFEA4B244EA9A
:100608000344A6450AD91CEB040400F1FF3380F02B
:100618000981A64540F20681644402380021A4EB12
:100628000E0440EA07401EB10023D440C6E9004347
:10063800BDE8F0878B4208D9002E00F0EE8000213B
:10064800C6E900050846BDE8F087B3FA83F100293A
:100658004AD1AB4202D3824200F2FC80841A65EB95
:10066800030301209846002EE2D0C6E90048DFE7E0
:1006780002B9FFDEB2FA82F2002A40F09180A1EBC3
:100688000C0001214FEA1C471FFA8CFEB0FBF7F360
:1006980007FB1300250C45EA00450EFB03F0A842B2
:1006A80008D91CEB050503F1FF3802D2A84200F275
:1006B800CE8043462D1AB5FBF7F007FB10550EFB0D
:1006C80000FEA4B244EA0544A64508D91CEB04047C
:1006D80000F1FF3502D2A64500F2B6802846A4EB09
:1006E8000E0440EA03409EE7C1F120078B4022FA3E
:1006F80007FC4CEA030C25FA07FA4FEA1C49BAFB37
:10070800F9F820FA07F309FB18AA8D401FFA8CFEA6
:100718001D4300FA01F308FB0EF02C0C44EA0A44CE
:10072800A04202FA01F20BD91CEB040408F1FF3ACB
:1007380080F08880A04240F28580A8F102086444D5
:10074800241AB4FBF9F009FB104400FB0EFEADB20D
:1007580045EA0444A64508D91CEB040400F1FF351A
:100768006CD2A6456AD90238644440EA0840A0FB26
:100778000295A4EB0E04AC42C846AE4656D353D0FD
:10078800002E69D0B3EB080264EB0E0422FA01F3E1
:1007980004FA07F71F43CC40C6E90074002147E775
:1007A8000CFA02FCC2F1200125FA01F34FEA1C47BA
:1007B80020FA01F195400D43B3FBF7F107FB113324
:1007C8001FFA8CFE280C40EA034001FB0EF383421B
:1007D80004FA02F408D91CEB000001F1FF382FD20B
:1007E80083422DD902396044C01AB0FBF7F307FBE6
:1007F8001300ADB245EA004503FB0EF0A84208D944
:100808001CEB050503F1FF3816D2A84214D9023BA8
:100818006544281A43EA014138E73146304607E77C
:100828002F46E4E61846F9E64B45A9D2B9EB02088B
:1008380065EB0C0E0138A3E74346EAE7284694E740
:100848004146D1E7D0467BE76444023847E7023B9C
:1008580065442FE7084606E73146E9E6704700BFDA
:10086800844641EA000313F0030349D1403A23D3F5
:100878000B6803604B6843608B688360CB68C36018
:100888000B6903614B6943618B698361CB69C36100
:100898000B6A03624B6A43628B6A8362CB6AC362E8
:1008A8000B6B03634B6B43638B6B8363CB6BC363D0
:1008B80040304031403ADBD230320BD30B68036012
:1008C8004B6843608B688360CB68C360103010311D
:1008D800103AF3D20C3205D351F8043B40F8043BEC
:1008E800043AF9D2043208D0D2071CBF11F8013BF0
:1008F80000F8013B01D30B8803806046704700BFB6
:10090800082A13D38B07B1D010F00303AED0C3F17C
:100918000403D21ADB071CBF11F8013B00F8013BA6
:10092800A4D331F8023B20F8023B9FE7043AD9D31D
:10093800013A11F8013B00F8013BF9D20B7803703A
:100948004B7843708B7883706046704770B54FF072
:10095800FF0C4CF4E06C1CEA11541DBF1CEA135543
:1009680094EA0C0F95EA0C0F00F0DEF82C4481EAAB
:10097800030621EA4C5123EA4C5350EA013518BFCB
:1009880052EA033541F4801143F4801338D0A0FBB8
:1009980002CE4FF00005E1FB02E506F00042E0FB65
:1009A80003E54FF00006E1FB03569CF0000F18BF6B
:1009B8004EF0010EA4F1FF04B6F5007F64F5407413
:1009C80004D25FEA4E0E6D4146EB060642EAC621A6
:1009D80041EA55514FEAC52040EA5E504FEACE2E13
:1009E800B4F1FD0C88BFBCF5E06F1ED8BEF1004F16
:1009F80008BF5FEA500E50F1000041EB045170BD92
:100A080006F0004646EA010140EA020081EA0301D5
:100A1800B4EB5C04C2BFD4EB0C0541EA045170BDD1
:100A280041F480114FF0000E013C00F3AB8014F14B
:100A3800360FDEBF002001F0004170BDC4F1000494
:100A4800203C35DA0C341BDC04F11404C4F1200515
:100A580000FA05F320FA04F001FA05F240EA020070
:100A680001F0004221F0004110EBD37021FA04F6A6
:100A780042EB06015EEA430E08BF20EAD37070BD60
:100A8800C4F10C04C4F1200500FA04F320FA05F0BF
:100A980001FA04F240EA020001F0004110EBD370C1
:100AA80041F100015EEA430E08BF20EAD37070BD31
:100AB800C4F1200500FA05F24EEA020E20FA04F30A
:100AC80001FA05F243EA020321FA04F001F00041B9
:100AD80021FA04F220EA020000EBD3705EEA430E2A
:100AE80008BF20EAD37070BD94F0000F0FD101F059
:100AF8000046400041EB010111F4801F08BF013C92
:100B0800F7D041EA060195F0000F18BF704703F0CF
:100B18000046520043EB030313F4801F08BF013D56
:100B2800F7D043EA0603704794EA0C0F0CEA135512
:100B380018BF95EA0C0F0CD050EA410618BF52EACC
:100B48004306D1D181EA030101F000414FF00000D2
:100B580070BD50EA410606BF1046194652EA4306E0
:100B680019D094EA0C0F02D150EA013613D195EA54
:100B78000C0F05D152EA03361CBF104619460AD19C
:100B880081EA030101F0004141F0FE4141F47001A6
:100B98004FF0000070BD41F0FE4141F4780170BD96
:100BA80070B54FF0FF0C4CF4E06C1CEA11541DBFFB
:100BB8001CEA135594EA0C0F95EA0C0F00F0A7F8FD
:100BC800A4EB050481EA030E52EA03354FEA01312A
:100BD80000F088804FEA03334FF0805545EA13133D
:100BE80043EA12634FEA022245EA111545EA106505
:100BF8004FEA00260EF000419D4208BF964244F19C
:100C0800FD0404F5407402D25B084FEA3202B61ABA
:100C180065EB03055B084FEA32024FF480104FF48E
:100C2800002CB6EB020E75EB030E22BFB61A754602
:100C380040EA0C005B084FEA3202B6EB020E75EB95
:100C4800030E22BFB61A754640EA5C005B084FEAFD
:100C58003202B6EB020E75EB030E22BFB61A7546CA
:100C680040EA9C005B084FEA3202B6EB020E75EBD5
:100C7800030E22BFB61A754640EADC0055EA060E96
:100C880018D04FEA051545EA16754FEA06164FEAD9
:100C9800C30343EA52734FEAC2025FEA1C1CC0D185
:100CA80011F4801F0BD141EA00014FF000004FF012
:100CB800004CB6E711F4801F04BF01430020B4F1D3
:100CC800FD0C88BFBCF5E06F3FF6AFAEB5EB030C8B
:100CD80004BFB6EB020C5FEA500C50F1000041EB88
:100CE800045170BD0EF0004E4EEA113114EB5C0455
:100CF800C2BFD4EB0C0541EA045170BD41F4801128
:100D08004FF0000E013C90E645EA060E8DE60CEA2F
:100D1800135594EA0C0F08BF95EA0C0F3FF43BAF4C
:100D280094EA0C0F0AD150EA01347FF434AF95EA03
:100D38000C0F7FF425AF104619462CE795EA0C0FE7
:100D480006D152EA03353FF4FDAE1046194622E7B4
:100D580050EA410618BF52EA43067FF4C5AE50EA8E
:100D680041047FF40DAF52EA43057FF4EBAE12E77E
:100D78004FF0FF3C06E000BF4FF0010C02E000BF5F
:100D88004FF0010C4DF804CD4FEA410C7FEA6C5C42
:100D98004FEA430C18BF7FEA6C5C1BD001B050EAE5
:100DA800410C0CBF52EA430C91EA030F02BF90EAD0
:100DB800020F0020704710F1000F91EA030F58BF8F
:100DC800994208BF90422CBFD8176FEAE37040F0F1
:100DD800010070474FEA410C7FEA6C5C02D150EA8F
:100DE800013C07D14FEA430C7FEA6C5CD6D152EA4A
:100DF800033CD3D05DF8040B704700BF844610460F
:100E080062468C461946634600E000BF01B5FFF70D
:100E1800B7FF002848BF10F1000F01BD4DF808EDDD
:100E2800FFF7F4FF0CBF012000205DF808FB00BFAE
:100E38004DF808EDFFF7EAFF34BF012000205DF808
:100E480008FB00BF4DF808EDFFF7E0FF94BF012055
:100E580000205DF808FB00BF4DF808EDFFF7CEFF56
:100E680094BF012000205DF808FB00BF4DF808ED95
:100E7800FFF7C4FF34BF012000205DF808FB00BF66
:100E88004FEA410C7FEA6C5C02D150EA013C0AD17E
:100E98004FEA430C7FEA6C5C02D152EA033C02D170
:100EA8004FF0000070474FF0010070474FEA4102D1
:100EB80012F5001215D211D56FF47873B3EB6252A4
:100EC80012D94FEAC12343F0004343EA505311F0CB
:100ED800004F23FA02F018BF404270474FF000005D
:100EE800704750EA013005D111F0004008BF6FF09B
:100EF800004070474FF00000704700BF002103E03A
:100F08000A4B5B584350043109480A4B42189A422D
:100F1800F6D3094A02E0002342F8043B074B9A4201
:100F2800F9D301F061FF03F0B7FA7047D4C900089C
:100F380000000020780B0020780B0020A40E002071
:100F4800FEE7000080B582B000AF78607B68184A81
:100F580093421ED07B68164A934223D87B68154A71
:100F6800934204D07B68144A934209D01AE040F2B5
:100F7800093000F0C7FF40F2093000F0E5FF12E049
:100F880040F20A3000F0BEFF40F20A3000F0DCFF09
:100F980009E040F20F3000F0B5FF40F20F3000F0EA
:100FA800D3FF00E000BF00BF0837BD4680BD00BFCB
:100FB800003C0140002401400028014080B483B077
:100FC80000AF7860084B1B68074A23F4702313604E
:100FD800054B1A6804497B6813430B6000BF0C3744
:100FE800BD4680BC704700BF0424014080B485B072
:100FF80000AFF860B9601346FB71FB79002B27D06E
:10100800BB6803F48073002B07D0FB6804331B68AC
:10101800FA68043243F480731360BB6803F4806396
:10102800002B07D0FB6804331B68FA68043243F4CA
:1010380080631360BB6803F00203002B2FD0FB68AA
:1010480008331B68FA68083243F00203136026E08D
:10105800BB6803F48073002B07D0FB6804331B685C
:10106800FA68043223F480731360BB6803F4806366
:10107800002B07D0FB6804331B68FA68043223F49A
:1010880080631360BB6803F00203002B07D0FB6882
:1010980008331B68FA68083223F00203136000BFA4
:1010A8001437BD4680BC704780B483B000AF786009
:1010B80039603B68002B08D07B6808331B687A6866
:1010C800083243F40063136007E07B6808331B6849
:1010D8007A68083223F40063136000BF0C37BD46FA
:1010E80080BC704780B483B000AF78607B680833F9
:1010F8001B6803F00103002B07D17B6808331B68CA
:101108007A68083243F00103136000BF0C37BD460C
:1011180080BC704780B483B000AF78607B680833C8
:101128001B687A68083243F00803136000BF7B68C5
:1011380008331B6803F00803002BF8D17B680833D9
:101148001B687A68083243F00403136000BF7B68A9
:1011580008331B6803F00403002BF8D100BF00BF5D
:101168000C37BD4680BC704780B485B000AFF860CE
:101178000B467A60FB72FB7A012B02D0022B15D04A
:1011880029E0FB682C331B68FA682C3223F47003BF
:101198001360FB682C331A687B68013B1B0503F45A
:1011A8007003F9682C3113430B6014E0FB68383383
:1011B8001B68FA68383223F440131360FB6838332D
:1011C8001A687B68013B1B0503F44013F968383142
:1011D80013430B6000BF00BF1437BD4680BC704787
:1011E80080B487B000AFF8607B600B46FB72134693
:1011F800BB72FB7A052B1ED8FB6834331B687B61F6
:10120800FA7A13469B0013441F2202FA03F3DB43C6
:101218007A6913407B61B97AFA7A13469B001344C2
:1012280001FA03F37A6913437B61FB6834331A4686
:101238007B69136048E0FB7A0B2B20D8FB683033BE
:101248001B687B61FB7A9A1F13469B0013441F227D
:1012580002FA03F3DB437A6913407B61B97AFB7ABC
:101268009A1F13469B00134401FA03F37A69134348
:101278007B61FB6830331A467B69136024E0FB7A94
:101288000F2B21D8FB682C331B687B61FB7AA3F1F9
:101298000C0213469B0013441F2202FA03F3DB439C
:1012A8007A6913407B61B97AFB7AA3F10C02134681
:1012B8009B00134401FA03F37A6913437B61FB68CB
:1012C8002C331A467B691360BB7A092B1ED8FB683E
:1012D80010331B683B61BA7A13465B00134407223C
:1012E80002FA03F3DB433A6913403B61BA7A1346C7
:1012F8005B0013447A6802FA03F33A6913433B61CB
:10130800FB6810331A463B69136024E0BB7A112B43
:1013180021D8FB680C331B683B61BB7AA3F10A0236
:1013280013465B001344072202FA03F3DB433A69CE
:1013380013403B61BB7AA3F10A0213465B001344D6
:101348007A6802FA03F33A6913433B61FB680C338A
:101358001A463B69136000BF1C37BD4680BC704706
:1013680080B485B000AFF8600B467A60FB72FB7AF8
:10137800012B02D0022B12D023E0FB6808331B6834
:10138800FA68083223F460231360FB6808331A688C
:10139800FB68083319467B6813430B6011E0FB6850
:1013A80008331B68FA68083223F4E0431360FB68CB
:1013B80008331A68FB68083319467B6813430B60C7
:1013C80000BF00BF1437BD4680BC704780B483B0EF
:1013D80000AF78600B46FB701346BB70BB78002BE0
:1013E8001AD0FB7803F00103002B07D07B68083381
:1013F8001B687A68083243F480131360FB7803F0A3
:101408000203002B22D07B6808331B687A680832F5
:1014180043F40043136019E0FB7803F00103002B49
:1014280007D07B6808331B687A68083223F4801376
:101438001360FB7803F00203002B07D07B680833A6
:101448001B687A68083223F40043136000BF0C3726
:10145800BD4680BC704780B483B000AF78600B464F
:10146800FB70FB7803F00103002B07D07B6808337F
:101478001B687A68083243F480031360FB7803F032
:101488000203002B07D07B6808331B687A68083290
:1014980043F40013136000BF0C37BD4680BC70478F
:1014A80080B483B000AF78607B684C331B689BB214
:1014B80018460C37BD4680BC704780B483B000AF77
:1014C800786039607B6880331B687A68803223F4DF
:1014D800405313607B6880331A687B6880331946F1
:1014E8003B6813430B6000BF0C37BD4680BC704798
:1014F80080B485B000AF786039600023FB737B68E7
:101508001A683B681340002B01D00123FB73FB7B57
:1015180018461437BD4680BC704780B483B000AF0E
:10152800786039607B6819683B68DA437B680A40F1
:101538001A6000BF0C37BD4680BC704780B500AF4D
:1015480040F21D4000F0DEFC40F21D4000F0FCFCC3
:1015580000BF80BD80B483B000AF78607B68002B8B
:1015680006D1094B1B68084A43F00103136005E0E4
:10157800054B1B68044A43F48033136000BF0C37E3
:10158800BD4680BC704700BF0074004080B483B083
:1015980000AF78607B68002B06D1094B1B68084AAE
:1015A80023F00203136005E0054B1B68044A23F48B
:1015B8000033136000BF0C37BD4680BC704700BFC6
:1015C8000074004080B485B000AFF860B96013467D
:1015D800FB80FB68002B18D1BB68022B11D0BB68BD
:1015E800022B2BD8BB68002B03D0BB68012B04D07F
:1015F80024E0164AFB88136023E0154AFB88136031
:101608001FE0144AFB8813601BE0BB68022B11D053
:10161800BB68022B14D8BB68002B03D0BB68012B16
:1016280004D00DE00C4AFB8813600AE00B4AFB88E3
:10163800136006E00A4AFB88136002E000BF00E07E
:1016480000BF00BF1437BD4680BC70470874004017
:101658000C7400401074004014740040187400406A
:101668001C74004080B483B000AF78607B68002BA6
:1016780006D1094B1B68084A43F00403136005E0D0
:10168800054B1B68044A43F48023136000BF0C37E2
:10169800BD4680BC704700BF0074004080B483B072
:1016A80000AF786039607B68002B0CD10F4B1B684A
:1016B8000E4A23F0380313600C4B1A680B493B6839
:1016C80013430B600CE0094B1B68084A23F46013B2
:1016D8001360064B1A683B681B04044913430B60EC
:1016E80000BF0C37BD4680BC704700BF0074004087
:1016F80080B483B000AF78607B68002B06D1094BBB
:101708001B68084A43F00103136005E0054B1B689A
:10171800044A43F00203136000BF0C37BD4680BC87
:10172800704700BF0474004080B483B000AF786095
:1017380039607B68002B0CD10F4B1B680E4A23F0D5
:10174800C00313600C4B1A680B493B6813430B60CA
:101758000CE0094B1B68084A23F440031360064B4E
:101768001A683B681B04044913430B6000BF0C371D
:10177800BD4680BC704700BF0074004080B483B091
:1017880000AF78600B46FB701346BB70344B1A6889
:101798007B68DB43324913400B60324B1A687B6825
:1017A800DB43304913400B602F4B1A687B68DB43DF
:1017B8002D4913400B602D4B1A687B68DB432B497E
:1017C80013400B60FB78002B02D0012B07D00DE0F3
:1017D800234B1A6822497B6813430B6006E0214BB0
:1017E8001A6820497B6813430B6000BFBB78022B43
:1017F80022D0022B2DDC002B02D0012B0ED028E0AA
:10180800194B1A6818497B6813430B60174B1A6801
:101818007B68DB43154913400B601BE0124B1A68C9
:101828007B68DB43104913400B60104B1A680F4963
:101838007B6813430B600DE00B4B1A680A497B6801
:1018480013430B60094B1A6808497B6813430B6004
:1018580000E000BF00BF0C37BD4680BC704700BF2A
:101868000004014004040140080401400C04014044
:1018780080B485B000AF78600B4B1B687A68134062
:10188800FB600A4B1B687A681340BB60FB68002B3F
:1018980004D0BB68002B01D0012300E000231846C8
:1018A8001437BD4680BC7047140401400004014051
:1018B80080B483B000AF7860034A7B68136000BFD0
:1018C8000C37BD4680BC70471404014080B489B011
:1018D80000AFF860B9607A603B600023BB61002309
:1018E8007B61BB6803F00F03BB61BB6803F01003A7
:1018F800002B03D0BA697B681343BB610023FB83C9
:1019080039E0FB8B01229A403B681340002B2FD013
:10191800FB681B687B61FB8B9B000F2202FA03F3B9
:10192800DB437A6913407B61FB8B9B00BA6902FA3F
:1019380003F37A6913437B61BB68282B09D1FB8BBE
:1019480001229A40FB68143319463B6813400B6028
:101958000BE0BB68482B08D1FB8B01229A40FB683F
:10196800103319463B6813400B60FB687A691A60AC
:10197800FB8B0133FB83FB8B072BC2D90823FB832B
:101988003EE0FB8B01229A403B681340002B34D089
:10199800FB6804331B687B61FB8B083B9B000F22B1
:1019A80002FA03F3DB437A6913407B61FB8B083B44
:1019B8009B00BA6902FA03F37A6913437B61BB6837
:1019C800282B09D1FB8B01229A40FB681433194656
:1019D8003B6813400B600BE0BB68482B08D1FB8BBE
:1019E80001229A40FB68103319463B6813400B608C
:1019F800FB6804331A467B691360FB8B0133FB8356
:101A0800FB8B0F2BBDD900BF00BF2437BD4680BC60
:101A1800704780B483B000AF786039607B6810335A
:101A28001A463B68136000BF0C37BD4680BC704740
:101A380080B483B000AF786039607B6814331A468D
:101A48003B68136000BF0C37BD4680BC704780B44C
:101A580083B000AF786039607B6808331A683B68E8
:101A68001340002B01D0012300E0002318460C3757
:101A7800BD4680BC7047000080B487B000AF786076
:101A88000B46FB7000233B610023FB6000237B6156
:101A98000023BB607B68002B03DA2E4B1B687B613D
:101AA80002E02D4B1B687B617B681B0C03F00F0366
:101AB800BB607B689BB23B617B6803F44013B3F562
:101AC800401F0AD17B6923F0E0637B61224B1B68CE
:101AD800214A23F0E063136021E07B6803F480135C
:101AE800002B0ED00322BB6802FA03F3FB60FB68ED
:101AF800DB437A6913407B617B6943F0E0637B6178
:101B08000DE07B685B0D1B013A6902FA03F3DB43C6
:101B18007A6913407B617B6943F0E0637B61FB7802
:101B2800002B08D07B685B0D1B013A6902FA03F3AE
:101B38007A6913437B617B68002B03DA054A7B696A
:101B4800136002E0044A7B69136000BF1C37BD467E
:101B580080BC70471C0001400400014080B485B07F
:101B680000AF03463960FB711346BB710023FB606D
:101B7800BB79002B37D0FB79022B0AD13A4B1B6873
:101B8800FB60FA683B681343FB60374AFB681360E5
:101B980064E0FB79032B0AD1344B1B68FB60FA68BD
:101BA8003B681343FB60314AFB68136056E0FB79DE
:101BB800042B0AD12E4B1B68FB60FA683B68134361
:101BC800FB602B4AFB68136048E0FB79052B45D185
:101BD800284B1B68FB60FA683B681343FB60254A87
:101BE800FB6813603AE0FB79022B0BD11E4B1B6894
:101BF800FB603B68DB43FA681340FB601A4AFB68EA
:101C080013602BE0FB79032B0BD1184B1B68FB608F
:101C18003B68DB43FA681340FB60144AFB681360B7
:101C28001CE0FB79042B0BD1114B1B68FB603B6854
:101C3800DB43FA681340FB600D4AFB6813600DE054
:101C4800FB79052B0AD10B4B1B68FB603B68DB4318
:101C5800FA681340FB60074AFB68136000BF14373B
:101C6800BD4680BC704700BF3C00014040000140B9
:101C7800440001404800014080B485B000AF0346ED
:101C88000A46FB711346BB710023FB60BB7903F066
:101C980003039B000F2202FA03F3FB60BB79032BBB
:101CA80013D82D4B1A68FB68DB432B4913400B6094
:101CB800294B1A68F979BB7903F003039B0001FAF1
:101CC80003F3254913430B6040E0BB79072B13D876
:101CD800224B1A68FB68DB43204913400B601F4BFB
:101CE8001A68F979BB7903F003039B0001FA03F33F
:101CF8001A4913430B6029E0BB790B2B13D8184BF7
:101D08001A68FB68DB43164913400B60144B1A68CA
:101D1800F979BB7903F003039B0001FA03F3104937
:101D280013430B6012E00F4B1A68FB68DB430D4945
:101D380013400B600B4B1A68F979BB7903F0030366
:101D48009B0001FA03F3074913430B6000BF1437E4
:101D5800BD4680BC704700BF080001400C00014030
:101D6800100001401400014080B483B000AF7860D7
:101D7800054A7B6843F0BF6343F40033D36000BF78
:101D88000C37BD4680BC704700ED00E080B586B0DA
:101D980000AF0346FB710B46BB7113467B710023F2
:101DA800FB6000237B6100233B61364BDB6803F457
:101DB800E063B3F5E06F15D0B3F5E06F2BD8B3F55A
:101DC800C06F14D0B3F5C06F25D8B3F5A06F13D08A
:101DD800B3F5A06F1FD8B3F5407F17D0B3F5806F68
:101DE8000FD018E000237B6104233B611CE0012332
:101DF8007B6103233B6117E002237B6102233B6184
:101E080012E003237B6101233B610DE004237B6126
:101E180000233B6108E04FF4A060FFF7A5FF022311
:101E28007B6102233B6100BFBA797B69C3F104037C
:101E380002FA03F3FB607A793B69C3F104030F21CB
:101E480021FA03F31340FA681343FB60FB681B0194
:101E5800FB600D4AFB79F968C9B213440A4683F856
:101E68000023FB7903F01F030749FA795209D2B21C
:101E78001046012202FA03F341F8203000BF183758
:101E8800BD4680BD00ED00E000E100E080B483B015
:101E980000AF0346FB71FB7903F01F030749FA798A
:101EA8005209D2B2104601229A4000F1200341F8AB
:101EB800232000BF0C37BD4680BC704700E100E01E
:101EC80080B483B000AF0346FB80FB889B099BB2BC
:101ED80003F1804303F504331968FB8803F01F03FB
:101EE80001229A40FB889B099BB203F1804303F5CA
:101EF8000433184641EA0203036000BF0C37BD46AD
:101F080080BC704780B483B000AF0346FB80FB8879
:101F18009B099BB203F1804303F504331968FB88DE
:101F280003F01F0301229A40FB889B099BB203F12F
:101F3800804303F50433184641EA0203036000BFF7
:101F48000C37BD4680BC704780B483B000AF0346F1
:101F5800FB80FB889B099BB203F1804303F50433A4
:101F68001968FB8803F01F03012202FA03F3DA431E
:101F7800FB889B099BB203F1804303F504331846A1
:101F880001EA0203036000BF0C37BD4680BC7047FE
:101F980080B485B000AF78600023FB60184B1B68E5
:101FA800FB60FB6823F0805323F44043FB607B68AD
:101FB800072B0FD07B68072B18D87B68032B03D916
:101FC8007B68052B06D011E07B689B03FA681343F6
:101FD800FB600CE07B6823F004037B607B689A035A
:101FE800FB68134343F08053FB6000E000BF044AE2
:101FF800FB68136000BF1437BD4680BC704700BF44
:102008000410024090B49AB000AF0346FB7100235D
:102018007B66784B07F11C040FCB84E80F00764AE7
:1020280007F1140392E8030083E80300724A07F1FA
:102038000C0392E8030083E80300704B1B689B08BD
:1020480003F003033B653B6D022B0FD03B6D022B66
:1020580077D83B6D002B03D03B6D012B03D070E08C
:10206800674B3B6670E0674B3B666DE0634B1B68F4
:1020780003F48033FB64FB6CB3F5803F31D1614BD3
:10208800BB65614B1B6803F48033BB64BB6CB3F561
:10209800803F1AD15C4B1B681B0903F00F03013307
:1020A8007B64594B1B681B0A03F00F0302337B65E3
:1020B8007B6D112B01D114237B65BA6D7B6CB2FB50
:1020C800F3F27B6D02FB03F3BB654F4B1B6803F018
:1020D8000F0301333B64BA6D3B6CB2FBF3F3BB6592
:1020E80001E04A4BBB65454B1B689B0C03F00F0393
:1020F800FB65424B1B6803F00053002B03D0FB6DBC
:1021080043F01003FB65FB6D0D2B0AD1BA6D134626
:102118005B0013445B001A46BB6D5B0813443B66C7
:1021280012E0FB6D0E2B03D8FB6D0233FB6502E05A
:10213800FB6D0133FB65BB6DFA6D02FB03F33B6678
:1021480002E02F4B3B6600BF2C4B1B681B0903F0BA
:102158000F03FB6307F11C02FB6B13441B78BB6383
:102168003A6EBB6B22FA03F37B63244B1B681B0A92
:1021780003F00703FB6307F11402FB6B13441B789E
:10218800BB637A6BBB6B22FA03F33B631B4B1B6885
:10219800DB0A03F00703FB6307F10C02FB6B134434
:1021A8001B78BB637A6BBB6B22FA03F3FB62FB7988
:1021B800032B17D801A252F823F000BFD52100083D
:1021C800DB210008E1210008E72100083B6E7B665F
:1021D80009E07B6B7B6606E03B6B7B6603E0FB6A92
:1021E8007B6600E000BF7B6E18466837BD4690BC32
:1021F800704700BF50C2000860C2000804100240C7
:1022080000127A0040787D012C10024000093D0040
:1022180080B582B000AF78607B68184A93420CD0D2
:102228007B68164A934223D87B68154A93420DD09F
:102238007B68144A934212D01AE04FF44370FFF7B8
:1022480061FE4FF44370FFF77FFE12E040F20E404C
:10225800FFF758FE40F20E40FFF776FE09E040F225
:102268000F40FFF74FFE40F20F40FFF76DFE00E012
:1022780000BF00BF0837BD4680BD00BF0030014029
:1022880000380040003C004080B485B000AF786062
:1022980039600023FB607B681B68FB60FB6803F404
:1022A8004153FB603B681B68FA681343FB603B685B
:1022B8005B68FA681343FB603B689B68FA681343E2
:1022C800FB603B68DB68FA681343FB603B681B698B
:1022D800FA681343FB603B685B69FA681343FB6069
:1022E8003B689B69FA681343FB607B68FA681A606D
:1022F8007B681C331B687A681C3223F40063136004
:1023080000BF1437BD4680BC704780B483B000AFAF
:1023180078607B681A687B6842F040021A6000BFE8
:102328000C37BD4680BC704780B483B000AF78607E
:102338007B681A687B6842F480721A6000BF0C37A9
:10234800BD4680BC704780B483B000AF7860396008
:102358007B6808331A683B681340002B01D00123BF
:1023680000E0002318460C37BD4680BC70470000CB
:1023780080B582B000AF78607B687F4A934200F0F6
:10238800D1807B687C4A934200F2F0807B687B4A6C
:10239800934200F0BE807B68784A934200F2E68060
:1023A8007B68774A934200F0AB807B68744A93421B
:1023B80000F2DC807B68734A934200F098807B6867
:1023C800704A934200F2D2807B686F4A93424FD0A2
:1023D8007B686D4A934200F2C9807B686B4A9342DE
:1023E80000F0BB807B68694A934200F2BF807B683B
:1023F800674A934200F0A8807B68654A934200F2DE
:10240800B5807B68634A934200F095807B68614A97
:10241800934200F2AB807B685F4A93425ED07B6850
:102428005D4A934200F2A2807B685C4A93424CD09A
:102438007B685A4A934200F299807B68584A9342D3
:102448003AD07B68564A934200F290807B68554A9E
:10245800934228D07B68534A934200F287807B6876
:10246800B3F1804F0DD07B684F4A934212D07DE084
:1024780040F20B30FFF746FD40F20B30FFF764FDEA
:1024880075E04FF48060FFF73DFD4FF48060FFF783
:102498005BFD6CE040F20140FFF734FD40F2014083
:1024A800FFF752FD63E040F20240FFF72BFD40F2D8
:1024B8000240FFF749FD5AE040F20340FFF722FDD2
:1024C80040F20340FFF740FD51E040F20440FFF7BF
:1024D80019FD40F20440FFF737FD48E040F205409F
:1024E800FFF710FD40F20540FFF72EFD3FE040F2F8
:1024F8000D30FFF707FD40F20D30FFF725FD36E000
:1025080040F21330FFF7FEFC40F21330FFF71CFDDA
:102518002DE04FF44570FFF7F5FC4FF44570FFF7D9
:1025280013FD24E040F21530FFF7ECFC40F21530C3
:10253800FFF70AFD1BE040F20640FFF7E3FC40F21C
:102548000640FFF701FD12E040F20740FFF7DAFC12
:1025580040F20740FFF7F8FC09E04FF48160FFF70D
:10256800D1FC4FF48160FFF7EFFC00E000BF00BF33
:102578000837BD4680BD00BF0054014000500140EF
:10258800004C014000340140002C01400020004074
:10259800001C0040001800400014004000100040DB
:1025A800000C0040000800400004004080B483B0E4
:1025B80000AF78607B6800221A807B6800225A800E
:1025C8007B6800229A807B684FF6FF729A607B686E
:1025D80000229A817B6800229A7300BF0C37BD469F
:1025E80080BC704780B483B000AF786039603B68C6
:1025F8001A887B6828331A607B683F4A93422BD03D
:102608007B68B3F1804F27D07B683C4A934223D044
:102618007B683B4A93421FD07B683A4A93421BD05F
:102628007B68394A934217D07B68384A934213D063
:102638007B68374A93420FD07B68364A93420BD067
:102648007B68354A934207D07B68344A934203D06B
:102658007B68334A934217D17B681A687B6822F0FB
:1026680070021A607B6819683B685B8803F0600237
:102678007B680A431A607B6819683B689B8803F08B
:1026880010027B680A431A607B682C331A463B6841
:102698009B6813607B68234A934212D07B68224A66
:1026A80093420ED07B681A687B6822F440721A60E5
:1026B8007B6819683B689B8903F440727B680A430E
:1026C8001A607B680C4A934203D07B680E4A934297
:1026D80004D13B689A7B7B6830331A607B6814337B
:1026E8001B687A68143243F00103136000BF0C378B
:1026F800BD4680BC704700BF002C0140000400406C
:1027080000080040000C004000340140004C01402B
:10271800005001400054014000180040001C0040D7
:1027280000200040001000400014004080B483B036
:1027380000AF78607B681A687B6842F001021A6013
:1027480000BF0C37BD4680BC704780B483B000AF73
:1027580078607B681A687B6822F001021A6000BF03
:102768000C37BD4680BC704780B483B000AF78603A
:1027780039607B6824331A463B68136000BF0C3706
:10278800BD4680BC704780B483B000AF78603960C4
:102798007B680C331A687B680C3319463B68134313
:1027A8000B6000BF0C37BD4680BC704780B483B057
:1027B80000AF786039607B680C331A683B68DB438C
:1027C80079680C3113400B6000BF0C37BD4680BCE4
:1027D800704780B485B000AF786039607B680C338F
:1027E8001B683A681340FB607B6810331A683B68C3
:1027F8001340002B04D0FB68002B01D0012300E01C
:10280800002318461437BD4680BC704780B483B097
:1028180000AF786039607B6810331A463B68DB4349
:10282800136000BF0C37BD4680BC704780B582B0CE
:1028380000AF78607B68424A93424FD07B68404A39
:10284800934278D87B683F4A93422CD07B683D4AB4
:10285800934270D87B683C4A934263D07B683A4A7B
:10286800934268D87B68394A934252D07B68374A8A
:10287800934260D87B68364A934241D07B68344A99
:10288800934258D87B68334A934230D07B68314AA8
:10289800934250D87B68304A93420DD07B682F4AC8
:1028A800934212D047E040F20E30FFF72BFB40F284
:1028B8000E30FFF749FB3FE040F21140FFF722FBE3
:1028C80040F21140FFF740FB36E040F21240FFF7BC
:1028D80019FB40F21240FFF737FB2DE041F6185084
:1028E800FFF710FB41F61850FFF72EFB24E040F2EB
:1028F8001340FFF707FB40F21340FFF725FB1BE0EF
:1029080040F21440FFF7FEFA40F21440FFF71CFBB8
:1029180012E041F61E60FFF7F5FA41F61E60FFF778
:1029280013FB09E041F61F60FFF7ECFA41F61F6060
:10293800FFF70AFB00E000BF00BF0837BD4680BDB7
:102948000070014000380140007C004000780040E1
:1029580000500040004C0040004400400048004047
:1029680080B586B000AF7860396000237B610023B2
:102978003B610023FB600023BB607B683F4A9342B6
:1029880039D07B683D4A934258D87B683C4A934289
:102998002CD07B683A4A934250D87B68394A934294
:1029A80047D07B68374A934248D87B68364A934277
:1029B8003AD07B68344A934240D87B68334A934282
:1029C8002DD07B68314A934238D87B68304A93428D
:1029D80020D07B682E4A934230D87B682D4A934298
:1029E8000ED07B682C4A93420FD027E00320FFF7D4
:1029F80009FB786123E00320FFF704FB78611EE000
:102A08000220FFF7FFFA786119E00220FFF7FAFACF
:102A1800786114E00220FFF7F5FA78610FE00220F0
:102A2800FFF7F0FA78610AE00220FFF7EBFA786125
:102A380005E00220FFF7E6FA786100E000BF3B6896
:102A48005A087B691A443B68B2FBF3F3BB60BA6867
:102A58004FF6F07313403B61BB6803F00F03FB6054
:102A68003A69FB6842EA03017B6808331A468BB26D
:102A7800136000BF1837BD4680BD00BF007001401D
:102A880000380140007C00400078004000500040C1
:102A9800004C0040004400400048004080B483B02F
:102AA80000AF786039607B680C331B687A680C3239
:102AB80023F4C06313607B680C331A687B680C339B
:102AC80019463B6813430B6000BF0C37BD4680BCFA
:102AD800704780B483B000AF786039607B680C338E
:102AE8001B687A680C3223F4805313607B680C33BC
:102AF8001A687B680C3319463B6813430B6000BFA8
:102B08000C37BD4680BC704780B483B000AF786096
:102B180039607B6810331B687A68103223F440539D
:102B280013607B6810331A687B68103319463B685A
:102B380013430B6000BF0C37BD4680BC704780B4A0
:102B480083B000AF78607B680C331B687A680C32FE
:102B580043F40053136000BF0C37BD4680BC704778
:102B680080B485B000AF786039600023FB607B6873
:102B78000C331B68FB60FB6823F00803FB60FA68F2
:102B88003B681343FB607B680C331A46FB68136091
:102B980000BF1437BD4680BC704780B485B000AF15
:102BA800786039600023FB607B680C331B68FB602E
:102BB800FB6823F00403FB60FA683B681343FB607F
:102BC8007B680C331A46FB68136000BF1437BD4698
:102BD80080BC704780B483B000AF786039607B6890
:102BE80080331B687A68803223F4006313607B6843
:102BF80080331A687B68803319463B6813430B603F
:102C080000BF0C37BD4680BC704780B483B000AFAE
:102C180078600B467B807B887A680432C3F30803AC
:102C2800136000BF0C37BD4680BC704780B483B0CA
:102C380000AF78607B6804331B689BB2C3F308035A
:102C48009BB218460C37BD4680BC704780B485B02F
:102C580000AF786039600023FB607B6814331B6821
:102C6800FB60FB6823F48073FB60FA683B681343DE
:102C7800FB607B6814331A46FB68136000BF143787
:102C8800BD4680BC704780B485B000AF78603960BD
:102C98000023FB607B6814331B68FB60FB6823F42C
:102CA8000073FB60FA683B681343FB607B6814336E
:102CB8001A46FB68136000BF1437BD4680BC7047D6
:102CC80080B483B000AF78600B467B807B889B091B
:102CD8009BB21A467B6813441A687B8803F01F036B
:102CE80022FA03F303F00103002B01D0012300E0D3
:102CF800002318460C37BD4680BC704780B483B0AB
:102D080000AF78600B467B807B889B099BB21A4694
:102D18007B6813441A687B8803F01F03012101FABA
:102D280003F37988890989B208467968014413430D
:102D38000B6000BF0C37BD4680BC704780B483B0C1
:102D480000AF78600B467B807B889B099BB21A4654
:102D58007B6813441A687B8803F01F03012101FA7A
:102D680003F3DB437988890989B208467968014405
:102D780013400B6000BF0C37BD4680BC704780B461
:102D880085B000AF786039600023FB600023BB602A
:102D98003B689B09C3F309027B6813441A683B68C4
:102DA80003F01F03012101FA03F31340FB603B68A2
:102DB8009A0D7B6813441A683B681B0C03F01F03C9
:102DC800012101FA03F31340BB60BB68002B04D058
:102DD800FB68002B01D0012300E0002318461437BC
:102DE800BD4680BC7047000080B582B000AF3C4B48
:102DF8001B683B4A43F00103136000BF384B1B6854
:102E080003F00203002BF9D0364B1B68354A43F018
:102E18008003136000237B6002E07B6801337B60E2
:102E28007B684F2BF9D92F4B1B682E4A43F0900330
:102E3800136000237B6002E07B6801337B607B6862
:102E48004F2BF9D9274B1B68264A23F0030313603D
:102E5800234B1B68224A23F0847323F480331360C6
:102E6800204B1A681F49204B13400B601C4B1B68F2
:102E78001B4A23F0847323F480331360184B1B68B8
:102E8800174A23F480231360164B1B68154A23F056
:102E9800035323F47C131360114B1B68104A23F06F
:102EA800A0531360114B00221A60114B4FF47F029C
:102EB8001A60104B00221A600F4B1B680E4A23F051
:102EC800805313600D4B4FF480021A600C4B0D4A6F
:102ED8001A6000F019F800BF0837BD4680BD00BF72
:102EE80000100240041002400C00FFE02C100240C9
:102EF80008100240801002409010024094100240D6
:102F0800981002401030002080B500AF00F002F8A1
:102F180000BF80BD80B483B000AF00237B60002376
:102F28003B603D4B1B683C4A43F4803313607B682D
:102F380001337B60384B1B6803F400333B603B680C
:102F4800002B04D17B684FF6FF729342EFD1324BCE
:102F58001B6803F40033002B00D1FEE72F4B2F4AE8
:102F68001B6813602D4B2D4A1B6813602B4B1B6885
:102F78002A4A43F480631360284B1B68274A23F0CE
:102F8800005323F47C131360244B1B68234A43F437
:102F980004131360224B1A682149224B13400B601B
:102FA8001F4B1B681E4A43F4853343F044031360E8
:102FB800194B1B68184A43F08063136000BF164B17
:102FC8001B6803F00063002BF9D0134B1B68124AEF
:102FD80043F08073136000BF0F4B1B6803F000734E
:102FE800002BF9D00D4B1B680C4A23F00303136028
:102FF8000A4B1B68094A43F00203136000BF074BE2
:103008001B6803F00803002BF9D000BF00BF0C3782
:10301800BD4680BC704700BF00100240041002404B
:103028002C10024000F0FEFF80B483B000AF0346CE
:10303800FB71044AFB79137000BF0C37BD4680BC96
:10304800704700BF0400002080B400AF034B1B781A
:10305800DBB21846BD4680BC704700BF04000020A4
:1030680080B500AF00F0ACFD024B00221A7000BF23
:1030780080BD00BF9A0B002080B500AF0D4B9B8828
:103088009BB25A1E91B20B4A9180002B0FD1094B6B
:1030980040F2E7329A80074B5B889BB25A1E91B286
:1030A800044A5180002B03D1FFF7DAFF00E000BF8C
:1030B80080BD00BF940B002080B485B000AF0346EC
:1030C800FB710B46BB8013467B800023FB60FB79BA
:1030D800022B0CD0022B19DC002B02D0012B03D0C1
:1030E80014E00D4BFB6005E00C4BFB6002E00C4B61
:1030F800FB6000BF7B881A46920013445B009AB2BB
:10310800FB689A80FB68BA885A8000E000BF1437D1
:10311800BD4680BC704700BFA60B00209E0B002058
:10312800AC0B002080B500AF042301220021024827
:10313800FEF7CCFB00BF80BD0008014080B500AFA2
:103148000723022200210C48FEF74AF801210A4809
:10315800FEF781F900BF02210748FEF7C9F90346C7
:10316800002BF8D002210448FEF7D7F90248FEF7F1
:1031780097F90346184680BD0024014080B483B007
:1031880000AF0346FB71074B1B68002B04D0054BAF
:103198001B68FA791A7000E000BF0C37BD4680BC86
:1031A800704700BFB40B002080B500AF40F20C6040
:1031B800FEF786FE0021024800F0E4FB00BF80BD58
:1031C8000030014080B500AF4FF480710248FEF72F
:1031D8002FFC00BF80BD00BF0018014080B500AFC4
:1031E8004FF480710248FEF714FC00BF80BD00BF99
:1031F8000018014080B584B000AF0346FB80FFF79C
:10320800E1FF0023FB6003233B73FB881B0A9BB28F
:10321800DBB27B73FB88DBB2BB730023FB7307F164
:103228000C0164230422054800F0D8FBFFF7D6FF01
:10323800FB7B18461037BD4680BD00BF00300140FB
:1032480080B584B000AF0346FB80FFF7BBFF0023C7
:10325800BB6000233B7303233B72FB881B0A9BB2B2
:10326800DBB27B72FB88DBB2BB720023FB720023EC
:103278003B7307F1080164230522084800F0AEFB00
:10328800FFF7ACFF3B7B1B021AB2FB7A1BB213435E
:103298001BB29BB218461037BD4680BD00300140B6
:1032A80080B584B000AF0346FB80FFF78BFF002397
:1032B800BB6007F10C0300210A461A800A469A707F
:1032C80003233B72FB881B0A9BB2DBB27B72FB8831
:1032D800DBB2BB720023FB7200233B7300237B73BA
:1032E8000023BB7307F1080164230722094800F093
:1032F80075FBFFF773FFBB7B1A067B7B1B041A4326
:103308003B7B1B021343FA7A134318461037BD461A
:1033180080BD00BF0030014080B584B000AF0346D7
:103328000A46FB8013467B71FFF74CFF0023FB60C6
:1033380006233B7307F10C01642301220F4800F0B8
:103348004DFBFFF74BFFFFF73DFF02233B73FB8865
:103358001B0A9BB2DBB27B73FB88DBB2BB737B7946
:10336800FB7307F10C0164230422044800F036FBC8
:10337800FFF734FF00BF1037BD4680BD0030014065
:1033880080B584B000AF03460A46FB801346BB8075
:10339800FFF718FF0023BB6000233B7306233B7233
:1033A80007F1080164230122124800F017FBFFF718
:1033B80015FFFFF707FF02233B72FB881B0A9BB22E
:1033C800DBB27B72FB88DBB2BB72BB88DBB2FB7201
:1033D800BB881B0A9BB2DBB23B7307F1080164236D
:1033E8000522044800F0FAFAFFF7F8FE00BF10378C
:1033F800BD4680BD0030014080B584B000AF0346B3
:103408003960FB80FFF7DEFE0023BB6007F10C0389
:1034180000210A461A800A469A7006233B7207F171
:10342800080164230122164800F0D8FAFFF7D6FEF7
:10343800FFF7C8FE02233B72FB881B0A9BB2DBB274
:103448007B72FB88DBB2BB723B68DBB2FB723B680A
:103458001B0ADBB23B733B681B0CDBB27B733B681C
:103468001B0EDBB2BB7307F1080164230722044873
:1034780000F0B4FAFFF7B2FE00BF1037BD4680BDBA
:103488000030014080B582B000AF0223FB710CE030
:10349800FA7913465B0013449B00094A1344184603
:1034A80000F012F8FB790133FB71FB79112BEFD98E
:1034B80001210448FEF7E0FA00BF0837BD4680BD89
:1034C800680000200002300080B582B000AF78604C
:1034D8007B685B891846FEF7F3FC7B681B7A182B20
:1034E80070D801A252F823F0B3350008CD35000892
:1034F800CD350008CD35000855350008CD35000814
:10350800CD350008CD350008CD350008CD3500088B
:10351800CD350008CD350008CD350008CD3500087B
:10352800CD350008CD3500086F350008CD350008C9
:10353800CD350008CD350008CD350008CD3500085B
:10354800CD350008CD350008993500087B68186826
:103558007B681B7A19467B685B7A1A467B685B68CE
:10356800FEF7B4F92FE07B681A687B685B68194638
:103578001046FEF74EFA7B6818687B681B7A194676
:103588007B685B7A1A467B685B68FEF79FF91AE0EE
:103598007B6818687B681B7A19467B685B7A1A46D1
:1035A8007B685B68FEF792F90DE07B6818687B68BA
:1035B8001B7A19467B685B7A1A467B685B68FEF75C
:1035C80085F900E000BF00BF0837BD4680BD00BFD9
:1035D80080B584B000AF78600B46FB70FB78112B88
:1035E8004ED8FA7813465B0013449B00264A1344CE
:1035F800FB604FF4C060FEF763FC7B689BB2184623
:10360800FEF75EFCFB78214A1B0113440C331B7840
:10361800012B02D0022B10D025E0FB781B4A1B019E
:1036280013441A68FB7819491B010B4404331B78AF
:1036380019461046FEF720FA15E0FB78134A1B01DD
:1036480013441B68D8B2FB78104A1B011344083393
:103658001968FB780D4A1B01134404331B781A467A
:10366800FEF77CFA00BFF868FFF72EFFFB780133FE
:10367800112B06D8FB680C331846FFF725FF00E02E
:1036880000BF1037BD4680BD68000020080000203C
:1036980080B582B000AF0023FB7109E0FB791B0104
:1036A800074A1344184600F00DF8FB790133FB7103
:1036B800FB79002BF2D000BF00BF0837BD4680BDA4
:1036C8004001002080B582B000AF78604FF4C06040
:1036D800FEF7F6FB7B68DB685B891846FEF7F0FBB4
:1036E8007B68DB681846FFF7EFFE7B68187A7B6813
:1036F800597A7B689B7A1A46FEF748FB7B689A7969
:103708007B68DB7919461046FEF7B6FA7B681868BD
:103718007B6819797B685B791A46FEF72FF87B6816
:103728001B681846FEF7C4F800BF0837BD4680BDC1
:1037380080B586B000AF0346FB71FA790A49134693
:103748005B0013449B00CA1807F10C0307CA83E8FF
:103758000700FB683A6911461846FEF769F900BF89
:103768001837BD4680BD00BF6800002080B586B010
:1037780000AF0346FB71FA790A4913465B0013440C
:103788009B00CA1807F10C0307CA83E80700FB6807
:103798003A6911461846FEF73CF900BF1837BD468E
:1037A80080BD00BF6800002080B584B000AFF8601D
:1037B800B96011461A460B46FB711346BB80FB796C
:1037C800012202FA03F31A460E4B1B681340002B22
:1037D80014D0B968F868FEF72BF9BA883B7E114611
:1037E800184600F04DF9FB79012202FA03F3DB4396
:1037F8001A46044B1B681340024A136000BF103777
:10380800BD4680BDB80B002080B584B000AFF8601D
:10381800B9601346FB71FB79184600F065F9034659
:10382800002B03D1B968F868FEF7F3F800BF10372A
:10383800BD4680BD80B584B000AFF860B960114660
:103848001A460B46FB8013467B71B968F868FEF789
:10385800EFF8FA887B791146184600F011F900BF95
:103868001037BD4680BD80B584B000AFF860B96040
:103878001346FB71FB79184600F036F90346002B16
:1038880003D1B968F868FEF7C4F800BF1037BD4621
:1038980080BD000080B500AF012140F21270FFF733
:1038A80097FE1A48FEF7C2FF4FF4E1311748FFF7B9
:1038B80057F84FF480511548FFF70BF900211348CA
:1038C800FFF722F94FF480611048FFF7E7F800216D
:1038D8000E48FFF7BBF900210C48FFF7D4F9002187
:1038E8000A48FFF777F904210848FFF756F9082135
:1038F8000648FFF735F90548FFF721F905220121A8
:103908002720FEF743FA00BF80BD00BF00480040F3
:1039180080B582B002AF052300930223002208215C
:103928001048FFF741FF06230093022301220121DB
:103938000C48FFF739FF032204210A48FFF793FFD9
:10394800042202210748FFF78EFF052208210548B7
:10395800FFF75AFF062201210248FFF755FF00BF73
:10396800BD4680BD0014014080B400AF044B1B6805
:1039780043F00203024A136000BFBD4680BC704793
:10398800B80B002080B584B000AF78600B46FB70A0
:103998000023FB73FA781346DB009B1A9B000E4A40
:1039A8001344BB60BB68002B03D10223FB73FB7B72
:1039B8000DE07868FEF72CFCB9687868FEF764FCBF
:1039C8007868FEF7B1FC7868FEF79FFCFB7B184629
:1039D8001037BD4680BD00BF5001002080B588B0BB
:1039E80000AFF860B9603B601346FB800023FB77AB
:1039F800BB68BB610123FB753968022000F040F801
:103A080035E0FB7D002B10D0012B27D10221F8686F
:103A1800FEF799FC0346012B1DD1BB691A78FB6898
:103A28000C331A600023FB7515E00121F868FEF7D6
:103A38008AFC0346012B10D1FB680C331B68DAB2F1
:103A4800BB691A70BB690133BB61FB88013BFB8012
:103A58000123FB7501E000BF00E000BF022000F079
:103A680043F80346002B02D10123FB7702E0FB88D1
:103A7800002BC6D1FB7F18462037BD4680BD00000D
:103A880080B483B000AF03463960FB71FB793A68B4
:103A9800D1B2034AD15400BF0C37BD4680BC704731
:103AA800BC0B002080B483B000AF0023FB7110E092
:103AB800FB790C4AD35CDBB2002B07D0FB79094AAF
:103AC800D25CD2B2013AD1B2064AD154FB79013361
:103AD800FB71FB79102BEBD900BF00BF0C37BD463B
:103AE80080BC7047BC0B002080B483B000AF034695
:103AF800FB71FB79034AD35CDBB218460C37BD4631
:103B080080BC7047BC0B002080B582B000AF7860E5
:103B18007B6893F90C30DBB21846FEF7B7F97B687F
:103B280093F90C30D8B27B68597B7B689B7B1A462B
:103B3800FEF72CF900BF0837BD4680BD80B584B0BC
:103B480000AF78600023FB737B68002B03D101234F
:103B5800FB73FB7B1DE07B681B68002B03D10223F2
:103B6800FB73FB7B15E07B689B881846FEF7A8F97A
:103B78007B689B681846FEF7FBFB7B689A687B6846
:103B88001B6819461046FEF72DFD7868FFF7BCFF45
:103B9800FB7B18461037BD4680BD000080B582B05B
:103BA80000AF78607B681B01044A13441846FFF78E
:103BB800C5FF00BF0837BD4680BD00BFA801002073
:103BC80080B500AF01210448FEF7F0FD0248FEF77A
:103BD800BCFD00BF80BD00BF0004004080B582B0BE
:103BE80000AF78607B68DBB29BB219460748FFF7E5
:103BF8000CF800BF07210548FFF762F80346002BC1
:103C0800F8D07B6818460837BD4680BD004C004098
:103C180080B582B000AF0346FB80FB881A460021BE
:103C28000020FDF7CFFC0020FDF762FD00BF08373C
:103C3800BD4680BD80B500AFFFF780FA0346184641
:103C480080BD000080B500AF40F20260FEF738F991
:103C580040F20360FEF734F940F20460FEF730F9F1
:103C680040F20560FEF72CF940F20660FEF728F9ED
:103C780040F20760FEF724F94FF4C160FEF720F91F
:103C880001214748FDF7F8FE402303220421454857
:103C9800FDF71CFE2023032204214248FDF716FEEF
:103CA8001023032204213F48FDF710FE4FF4004380
:103CB800032204213C48FDF709FE4FF48043032208
:103CC80004213948FDF702FE4FF400530322042172
:103CD8003548FDF7FBFD1023032210213348FDF77B
:103CE800F5FD0423032204212F48FDF7EFFD0123EE
:103CF800032204212B48FDF7E9FD022303220421B6
:103D08002848FDF7E3FD0223032210212848FDF788
:103D1800DDFD0823032210212348FDF7D7FD4FF4CA
:103D28008063032210212248FDF7D0FD01230322DE
:103D380010211F48FDF7CAFD4FF400730322042128
:103D48001B48FDF7C3FD4FF4807303220421184874
:103D5800FDF7BCFD0823032204211248FDF7B6FD38
:103D68002023032210211248FDF7B0FD102303225F
:103D780010210F48FDF7AAFD0823032210210C4843
:103D8800FDF7A4FD8023032210210848FDF79EFDBE
:103D98000223032210210448FDF798FD00BF80BDCF
:103DA80000023000001801400010014000140140DA
:103DB800000C0140B0B5B6B000AF6B4B07F1A404DE
:103DC8001D460FCD0FC40FCD0FC495E8030084E83E
:103DD8000300664B07F17C041D460FCD0FC40FCDC1
:103DE8000FC495E8030084E80300614B07F14C0415
:103DF8001D460FCD0FC40FCD0FC495E80F0084E802
:103E08000F005C4B07F11C041D460FCD0FC40FCDEE
:103E18000FC495E80F0084E80F003B1D00221A60CC
:103E28005A609A60DA601A619A820023C7F8D4301F
:103E380039E0D7F8D4309B00D8333B4453F8342CBE
:103E4800D7F8D4309B00D8333B4453F85C3C194630
:103E58001046FDF7EDFDD7F8D4309B00D8333B442E
:103E680053F88C2CD7F8D4309B00D8333B4453F804
:103E7800BC3C19461046FDF7EAFD0346002B0DD160
:103E88003A1DD7F8D430134401221A70D7F8D43029
:103E98000C33D8333B44012203F8D42CD7F8D43060
:103EA8000133C7F8D430D7F8D430092BC1DDD7F89F
:103EB800C830D7F8A02011461846FDF7B9FD7B6F2A
:103EC8007A6C11461846FDF7C2FD0346002B01D156
:103ED8000123BB73BB6FBA6C11461846FDF7B7FDDB
:103EE8000346002B01D10123FB730123C7F8D0300F
:103EF80012E0D7F8D0309AB2D7F8D030013BD83397
:103F08003B4413F8D43C1946104600F06DFFD7F82F
:103F1800D0300133C7F8D030D7F8D030162BE8DDD1
:103F28000023C7F8CC3016E0D7F8CC309B00D83344
:103F38003B4453F8342CD7F8CC309B00D8333B445F
:103F480053F85C3C19461046FDF763FDD7F8CC30B2
:103F58000133C7F8CC30D7F8CC30092BE4DD00BFEB
:103F680000BFD837BD46B0BD68C2000890C200087F
:103F7800B8C20008E8C2000880B584B000AF4FF4AA
:103F8800E060FDF79DFF4FF08040FEF7F1F93B46FA
:103F98001846FEF70BFB42F62F233B800E4BBB6007
:103FA8000023BB810023BB803B4619464FF080406D
:103FB800FEF718FB01214FF08040FEF7E4FB0022DA
:103FC80000211C20FDF7E2FE4FF08040FEF7AEFB1B
:103FD80000BF1037BD4680BD3F420F0080B500AF1F
:103FE8002248FCF7AFFF40F20260FDF769FF40F29C
:103FF8000960FDF765FF0020FDF7CAFFFFF792F89B
:104008000020FCF7DBFF00211848FDF74DF80122DE
:1040180001211648FDF7A8F80723022200211348BA
:10402800FDF7DEF8012202211048FCF7DFFF4FF40C
:10403800602201210D48FDF793F9012201210B4867
:10404800FDF7C4F900210948FDF737FA0748FDF7DD
:1040580049F8012002F0B6F80448FDF75BF80121A1
:104068000248FDF7F8F900BF80BD00BF00240140F9
:1040780080B500AF40F21D70FDF722FF1023032228
:1040880000210C48FDF722FCFDF758FA38210020E2
:10409800FDF704FB0020FDF7E5FA00210020FDF7FD
:1040A80043FB0020FDF772FA0020FDF753FA00BF2A
:1040B80080BD00BF0008014080B582B000AF034654
:1040C800FB80FB881846FFF7A3FDFB8819460120F3
:1040D80000F0F8FEFFF7AEFD0346FB80FB881946AB
:1040E800022000F0EFFE00BF0837BD4680BD00008B
:1040F80080B500AF4FF48073032204211948FDF7FF
:10410800E5FB8023032204211648FDF7DFFB40234B
:10411800032204211348FDF7D9FB4FF4004303227F
:1041280004211148FDF7D2FB4FF4804303220421F8
:104138000D48FDF7CBFB4FF40053032204210A4836
:10414800FDF7C4FB4FF48053032204210648FDF712
:10415800BDFB4FF40063032204210348FDF7B6FBBF
:1041680000BF80BD0010014000140140B0B594B0FC
:1041780000AF264B07F12C041D460FCD0FC495E860
:104188000F0084E80F00224B07F10C041D460FCDE9
:104198000FC495E80F0084E80F003B1D00221A6049
:1041A8005A600023FB6428E0FB6C9B0050333B44BF
:1041B80053F8242CFB6C9B0050333B4453F8443C8D
:1041C80019461046FDF743FC0346002B0CBF01239C
:1041D8000023D9B23A1DFB6C13440A461A70FB6CD3
:1041E8009BB2183398B23A1DFB6C13441B781946DE
:1041F80000F0FAFDFB6C0133FB64FB6C072BD3DD8D
:1042080000BF00BF5037BD46B0BD00BF18C300088F
:1042180038C3000880B500AFFEF7C6FF0021212093
:1042280000F0E2FD0021202000F0DEFD00BF80BD8F
:1042380080B582B000AF00237B6015E07B689BB23D
:10424800FF211846FFF768F87B689BB21846FEF70F
:10425800D1FF0346FF2B04D00021212000F0C4FD2C
:1042680027E07B6801337B607B68B3F5005FE5DBA3
:1042780000233B6015E03B689BB200211846FFF71E
:104288004BF83B689BB21846FEF7B4FF0346002B79
:1042980004D00021212000F0A7FD0AE03B6801338B
:1042A8003B603B68B3F5005FE5DB0121212000F0AE
:1042B8009BFD0837BD4680BD80B400AF00BFBD463A
:1042C80080BC704780B400AFFEE780B400AFFEE763
:1042D80080B400AFFEE780B400AFFEE780B400AF63
:1042E80000BFBD4680BC704780B400AF00BFBD466C
:1042F80080BC704780B400AF00BFBD4680BC70472B
:1043080080B500AF01F072FFFFF7CCFB00BF80BDA6
:1043180080B500AF0E490F48FEF731FD0346012B6B
:1043280001D101F0FDF90C490A48FEF728FD0346C2
:10433800012B01D101F032FA08490648FEF71FFDAA
:104348000346012B01D101F05BFA00BF80BD00BF1D
:1043580005030500004800400703070006030600A0
:1043680080B500AF01214FF08040FEF732FA0346D6
:10437800012B2BD101214FF08040FEF747FA01F0C5
:104388005FFA134B1B881846FFF796FE114B1B78F4
:10439800002B04D00E4B1B8801339BB203E00C4B5F
:1043A8001B88013B9BB20A4A1380094B1B8840F6C5
:1043B800C412934203D9074B00221A7006E0044B3B
:1043C8001B886D2B02D8034B01221A7000BF80BDD9
:1043D800C8010020CA01002080B500AF01210748AC
:1043E800FEF7F7F90346012B05D101210348FEF733
:1043F8000DFAFEF741FE00BF80BD00BF000400407B
:1044080080B500AF4020FDF733FA0346012B3FD1BA
:104418004020FDF74DFAFEF717FE0346082B37D864
:1044280040211C48FDF713FB0346012B12D101F074
:104438006AFA0346022B03D10420FEF7F5FD02E0D9
:104448000B20FFF793F90121022001F022FA01F075
:10445800B4FA1DE040210F48FDF7F9FA0346002B96
:1044680016D10021022001F014FA0B20FFF760F9A1
:10447800FEF7EAFD0346042B0AD8FEF7E5FD0346DE
:10448800002B05D00520FEF7CFFD042001F082FAAD
:1044980000BF80BD0018014080B500AFFEF7A4FC46
:1044A80001F06EFEFEF7EEFFFFF7F2F8FFF7CAFB2A
:1044B800FFF794FDFFF7DCFDFFF71AFEFFF7AAFEF2
:1044C800FFF75AFD00F0FAFBFFF722FA00F01CFD97
:1044D800FFF770FCFFF74AFEF6E780B582B000AF41
:1044E80003460A46FB8013467B717A79FB8811469E
:1044F8001846FEF711FF00BF0837BD4680BD80B5DE
:1045080082B000AF0346FB80FB881846FEF772FEB8
:10451800034618460837BD4680BD80B582B000AF57
:1045280003460A46FB801346BB80BA88FB881146BF
:104538001846FEF725FF00BF0837BD4680BD80B589
:1045480082B000AF0346FB80FB881846FEF778FE72
:10455800034618460837BD4680BD80B582B000AF17
:1045680003463960FB80FB8839681846FEF744FF2C
:1045780000BF0837BD4680BD80B582B000AF034696
:10458800FB80FB881846FEF78BFE03461846083763
:10459800BD4680BD80B483B000AF03460A46FB71B8
:1045A8001346BB71FA79BB791340DBB2002B14BFF9
:1045B80001230023DBB218460C37BD4680BC704788
:1045C80080B584B000AF03463960FB803B68DB7E72
:1045D800002B00F0BA80FB881A46D200D31A9B0041
:1045E8009BB21E33FB813B68DB7E7B737B7B0121A7
:1045F8001846FFF7CFFF0346002B14D03B681A88F4
:10460800FB8911461846FFF788FFFB890233FB81B7
:104618003B685A88FB8911461846FFF77EFFFB89DD
:104628000233FB8105E0FB890233FB81FB890233FE
:10463800FB817B7B02211846FFF7ACFF0346002B6A
:1046480014D03B68DA88FB8911461846FFF765FFE6
:10465800FB890233FB813B681A89FB89114618469E
:10466800FFF75BFFFB890233FB8105E0FB8902331F
:10467800FB81FB890233FB817B7B04211846FFF712
:1046880089FF0346002B14D03B689A89FB891146A1
:104698001846FFF742FFFB890233FB813B68DA8942
:1046A800FB8911461846FFF738FFFB890233FB8167
:1046B80005E0FB890233FB81FB890233FB817B7BAD
:1046C80008211846FFF766FF0346002B0AD03B680F
:1046D8001A7EFB8911461846FFF7FFFEFB89013356
:1046E800FB8102E0FB890133FB817B7B10211846AB
:1046F800FFF750FF0346002B0AD03B685A7EFB8920
:1047080011461846FFF7E9FEFB890133FB8102E0F9
:10471800FB890133FB817B7B20211846FFF73AFF99
:104728000346002B0AD03B689A7EFB89114618463F
:10473800FFF7D3FEFB890133FB8102E0FB890133DC
:10474800FB813B680022DA7600E000BF1037BD46E7
:1047580080BDB0B58AB000AF78600B467B807B889F
:104768001A46D200D31A9B009BB21E33FB84FB8CE3
:104778001846FFF7E4FE03463B81FB8C0233FB84BB
:10478800FB8C1846FFF7DBFE03467B81FB8C02336C
:10479800FB84FB8C1846FFF7D2FE0346FB81FB8C9B
:1047A8000233FB84FB8C1846FFF7C9FE03463B82A5
:1047B800FB8C0233FB84FB8C1846FFF7C0FE0346D4
:1047C800BB82FB8C0233FB84FB8C1846FFF7B7FED9
:1047D8000346FB82FB8C0233FB84FB8C1846FFF7F5
:1047E8008EFE034687F82030FB8C0133FB84FB8C5C
:1047F8001846FFF784FE034687F82130FB8C013307
:10480800FB84FB8C1846FFF77AFE034687F82230B4
:104818007B681D4607F108040FCC28606960AA6010
:10482800EB6007CC28616961AA6178682837BD46C2
:10483800B0BD80B584B000AF78607B685B7B002B2F
:104848006FD0DA23FB817B685B7B7B737B7B0121E9
:104858001846FFF79FFE0346002B0AD07B681A789C
:10486800FB8911461846FFF738FEFB890133FB81A7
:1048780002E0FB890133FB817B7B02211846FFF7AD
:1048880089FE0346002B0AD07B685A78FB891146BB
:104898001846FFF722FEFB890133FB8102E0FB8902
:1048A8000133FB817B7B04211846FFF773FE034627
:1048B800002B0AD07B685A68FB8911461846FFF717
:1048C8004CFEFB890133FB8102E0FB890133FB814C
:1048D8007B7B08211846FFF75DFE0346002B0AD0B4
:1048E8007B689A68FB8911461846FFF736FEFB89F4
:1048F8000433FB8102E0FB890433FB817B7B1021BD
:104908001846FFF747FE0346002B06D07B681A7847
:10491800FB8911461846FFF7E0FD7B6800225A73B1
:1049280000E000BF1037BD4680BD90B589B000AF2C
:104938007860DA23FB83FB8B1846FFF7E0FD03461C
:104948003B73FB8B0133FB83FB8B1846FFF7D7FDCB
:1049580003467B73FB8B0133FB83FB8B1846FFF706
:104968000BFE03463B61FB8B0433FB83FB8B184632
:10497800FFF702FE03467B61FB8B0433FB83FB8B53
:104988001846FFF7BCFD03463B767B681C4607F1DB
:104998000C030FCB84E80F0078682437BD4690BD20
:1049A80080B584B000AF78607B68DB79002B6DD070
:1049B800FE23FB817B68DB79FB72FB7A01211846B9
:1049C800FFF7E8FD0346002B0AD07B681A78FB89BD
:1049D80011461846FFF781FDFB890133FB8102E090
:1049E800FB890133FB81FB7A04211846FFF7D2FDCE
:1049F8000346002B15D000237B730EE07B7B7A687F
:104A080013445A78FB8911461846FFF766FDFB895F
:104A18000133FB817B7B01337B737B7B032BEDD8DD
:104A28000BE000233B7305E0FB890133FB813B7BF3
:104A380001333B733B7B032BF6D8FB7A02211846E4
:104A4800FFF7A8FD0346002B0AD07B689A88FB89EC
:104A580011461846FFF761FDFB890233FB8102E02E
:104A6800FB890233FB81FB7A08211846FFF792FD88
:104A78000346002B06D07B689A79FB8911461846B5
:104A8800FFF72BFD7B680022DA7100E000BF1037CA
:104A9800BD4680BD90B587B000AF7860FE23FB822D
:104AA800FB8A1846FFF72BFD03463B73FB8A01334D
:104AB800FB8200237B7511E07C7DFB8A1846FFF79B
:104AC8001EFD03461A4604F118033B4403F80B2C59
:104AD800FB8A0133FB827B7D01337B757B7D032B56
:104AE800EAD8FB8A1846FFF72AFD03463B82FB8A71
:104AF8000233FB82FB8A1846FFF701FD0346BB74AD
:104B08007B681A4607F10C0303CB10605160786884
:104B18001C37BD4690BD0000B0B5A6B000AF7862A6
:104B280007F1600334220021184601F077FB07F1F2
:104B3800440300221A605A609A60DA601A615A6166
:104B48009A610A23A7F846300523A7F84C300223B8
:104B5800A7F85230012387F85D30642387F85E3068
:104B6800FF2387F85F30002387F83430002387F865
:104B780035300023BB630023FB63002387F84030F4
:104B8800FF2387F841302F4A07F12C0392E80300EE
:104B980083E80300002387F8973010E0FF2387F8A5
:104BA8005F3097F897309BB207F1440211461846D8
:104BB800FFF706FD97F89730013387F8973097F895
:104BC8009730052BEAD907F134031846FFF731FE71
:104BD80007F12C031846FFF7E3FE3B460021184671
:104BE800FFF7B7FD07F160043D4628686968AA68C1
:104BF800EB680FC428696969AA6907C43B46184667
:104C0800FFF793FE07F17C043B460FCB84E80F00C7
:104C18003B461846FFF73EFF07F18C033A461068FB
:104C2800516803C37B6A1D4607F160040FCC0FC5AA
:104C38000FCC0FC50FCC0FC523682B60786A983747
:104C4800BD46B0BD58C30008B0B58AB000AFF86122
:104C5800002387F82730FC6907F110031846FFF78F
:104C680019FF04F12C0307F110021068516803C3FF
:104C7800FC693B461846FFF758FE1C343B460FCBF1
:104C880084E80F00FB695B7F87F8273097F82730A7
:104C98009AB2FC693B4611461846FFF75AFD3D4655
:104CA80028686968AA68EB680FC428696969AA69ED
:104CB80007C400BF2837BD46B0BD0000F0B58DB0B1
:104CC8000AAFFEF7E7FD1E4B00225A711C4B00226B
:104CD8005A741B4B01221A74194B01221A7000F0E6
:104CE80039FA4FF480611748FCF7A2FE40F205310B
:104CF8001548FEF703F80220FFF701FC0346FB7195
:104D0800FB79FF2B06D0FF210220FFF7E6FB01F01D
:104D180075F802E00D48FFF797FF0C4E6D4606F157
:104D280010040FCC0FC50FCC0FC523682B6096E875
:104D38000F0001F07BF800BF0C37BD46F0BD00BF87
:104D48000C0E00200018014000480040200E0020F2
:104D580080B483B000AF03460A46FB711346BB71AB
:104D6800BB79DB00DAB2FB791344DBB20133DBB287
:104D780018460C37BD4680BC704780B500AF00218F
:104D88004FF08040FDF7F0FC4FF08040FDF7CEFC7F
:104D980000BF80BD80B500AF4FF08040FDF7D5FC67
:104DA80000BF80BD80B483B000AF0346FB80FB88A2
:104DB800013BFB80FB885B00FB80FB880133094AD1
:104DC800D35CDBB21B021AB2FB880649CB5CDBB2B0
:104DD8001BB213431BB29BB218460C37BD4680BCAE
:104DE800704700BFD00B002080B485B000AF0346E9
:104DF8000A46FB8013467B710023FB7305E0FB7BAF
:104E08000133FB73FB88083BFB80FB88082BF6D833
:104E1800FB88013BFB807B79002B10D0FB7B134A7E
:104E2800D35CDBB25AB2FB88012101FA03F35BB20F
:104E380013435AB2FB7BD1B20C4AD15411E0FB7B2D
:104E48000A4AD35CDBB25AB2FB88012101FA03F3A8
:104E58005BB2DB435BB213405AB2FB7BD1B2034A6D
:104E6800D15400BF1437BD4680BC7047CC0C00201D
:104E780080B485B000AF0346FB800023FB7305E0D8
:104E8800FB7B0133FB73FB88083BFB80FB88082B0B
:104E9800F6D8FB88013BFB80FB7B094AD35CDBB27D
:104EA8001A46FB8842FA03F303F00103002B01D0F2
:104EB800012300E0002318461437BD4680BC704724
:104EC800CC0C002080B483B000AF03460A46FB80B8
:104ED8001346BB80FB88013BFB80FB885B00FB80A3
:104EE800FB88BA88D1B2074AD154BB881B0A9AB248
:104EF800FB880133D1B2034AD15400BF0C37BD46F9
:104F080080BC7047D00B002080B500AF884B5B7C1D
:104F1800DBB2002B03D1874801F0D2F907E18648BC
:104F280001F0CEF9824B9B78DBB2013BDAB2804BC1
:104F38005A70FF217E4B0A461A717D4B0A46DA7079
:104F48007B4B5B78DBB200227C49794800F014F98E
:104F5800774BDB78DAB2764B5B78DBB21946774B66
:104F68005B5CDBB29A420BD1714B1B79DAB2704BA6
:104F78009B78DBB21946714B5B5CDBB29A4202D07C
:104F88006B4B00225A746A4B5B7CDBB2002B02D05D
:104F9800674B00229A72694B1B78DAB2644B1B7814
:104FA800DBB29A4205D1624B5B7CDAB2604BDA73B2
:104FB8000FE05F4B0022DA73604B1B78DBB2002BEB
:104FC80007D05E4B1B78DBB2FF2B02D0584B002278
:104FD8005A74574B5B7CDBB2002B68D0544B0022D1
:104FE8009A70564B5B78DBB2013B0F2B40D801A27D
:104FF80052F823F03D500008795000085550000839
:10500800795000084950000861500008795000089C
:105018007950000879500008795000087950000844
:105028007950000879500008795000087950000834
:105038006D500008424A41493D4800F0DDF817E04C
:105048003F4A3E493A4800F08BF911E03D4A3B4956
:10505800374800F001FA0BE03A4A3849344800F082
:105068009AFA05E0374A3549314800F0EFFA00BFAF
:105078002F4B9B78DBB2002B0DD1304B5B78DBB22A
:1050880063F07F03DAB22D4B5A702C4B01229A70D1
:10509800274B04229A70264BDB7BDBB2002B06D110
:1050A8000021234B0A465A71214B0A465A74204B59
:1050B800DB7BDBB2002B37D0234801F001F9FF215D
:1050C8001B4B0A461A711A4B0A46DA70184B9B7822
:1050D800DBB2013BDAB2164B5A70154B5B78DBB288
:1050E80000221649124800F047F8114B5B78DBB2F2
:1050F8001A460F4BDB78D9B2104B99540C4B9B785E
:10510800DBB21A460A4B1B79D9B20C4B99544FF4AF
:1051180080610E48FCF77DFC052001F053F840F251
:1051280007310B48FDF7EAFD014B00225A7480BD98
:105138000C0E002060C300088CC300080C0D002072
:10514800CC0C0020D00B0020A4C30008001801409C
:105158000048004080B500AF0020FEF71FFD012188
:105168004FF08040FDF752FB01214FF08040FDF7E2
:105178000AFB00BF80BD000080B485B000AFF860B6
:10518800B96011461A460B46FB711346BB7123E002
:10519800FB79BA6813441B78DAB2FB68DB78DBB2B8
:1051A8005340DAB2FB689A71FB689B79DBB21A4606
:1051B8000F4B9A5CFB681B79DBB25340DAB2FB6891
:1051C800DA70FB689B79DBB21A460A4B9A5CFB687B
:1051D8001A71FB790133FB71FA79BB799A42D7D3FB
:1051E800FB6800225A7100BF1437BD4680BC704767
:1051F800C0C30008C0C4000880B485B000AFF86020
:10520800B9607A60BB68DB78DAB2FB68DA71BB68D0
:105218005B79DAB2FB689A73FB689B7BDBB203F0BD
:105228000703DBB2002B0AD0FB689B7BDBB2DB08F1
:10523800DAB2BB6802330132D2B21A7007E0FB68F7
:105248009B7BDAB2BB680233D208D2B21A70FB6811
:10525800DB79DAB2FB689B7BDBB21344DAB2FB681A
:10526800DA72FB6803225A71FB685B79DBB21A4673
:10527800BB68134400210A461A70FB680A469A74F0
:10528800FB68DB79DAB2FB685A7255E0FB685B7A37
:10529800DBB2DB08DAB2FB681A72FB681B7ADBB296
:1052A8001A467B6813441B78DBB21A46FB685B7AA4
:1052B800DBB21946FB681B7ADBB2DB00CB1A42FA79
:1052C80003F303F00103002B16D0FB689B7CDBB2D1
:1052D8001A46012303FA02F0FB685B79D9B20A4641
:1052E800BB6813441B78DBB25AB243B213435AB2B9
:1052F800BB680B44D2B21A70FB689B7CDBB20133EB
:10530800DBB2FA6819469174072B0ED9FB680022A4
:105318009A74FB685B79DBB20133DAB2FB68114639
:105328005971BB68134400221A70FB685B7ADBB2C0
:105338000133DAB2FB685A72FB685B7ADAB2FB684F
:10534800DB7ADBB29A42A1D3FB685B79DBB202332A
:10535800DAB2FB689A7000BF1437BD4680BC70474C
:1053680080B586B000AFF860B9607A60BB68DB785A
:10537800DAB2FB68DA71FB68DB79DBB2DB08DAB238
:10538800FB681A72BB6804331B78DBB2FF2B1CD195
:10539800FB68DB79DBB21A46FB681B7ADBB2DB0001
:1053A800D31A012202FA03F0FB681B7AD9B20A4623
:1053B8007B6813441B78DBB25AB243B213435AB228
:1053C8007B680B44D2B21A701CE0FB68DB79DBB255
:1053D8001A46FB681B7ADBB2DB00D31A012202FAF9
:1053E80003F3D843FB681B7AD9B20A467B68134497
:1053F8001B78DBB25AB243B213405AB27B680B44F3
:10540800D2B21A70FB68DB79DAB2FB681B7ADBB2BE
:10541800DB00DBB2D31ADAB2FB681B7ADBB21946BF
:105428001046FFF795FC0346FB75FB7D184600F018
:1054380005FB2020FFF71CFD0346002B05D00021AB
:105448002020FFF7D1FCFEF7F3FEFB6805229A70D7
:1054580000BF1837BD4680BD80B485B000AFF86086
:10546800B9607A60BB68DB78DAB2FB68DA71BB686E
:105478005B79DAB2FB689A73BB6802331B78DBB2DC
:10548800002B05D1BB6804331B78DBB2002B02D09C
:10549800FB68FF22DA71FB68DB79DAB2FB689B7B79
:1054A800DBB21344DAB2FB68DA72FB689B7BDAB2D0
:1054B800BB6802335200D2B21A70FB68DB7ADBB2E7
:1054C800802B52D8FB6803225A71FB68DB79DAB269
:1054D800FB685A7239E0FB685B7ADBB25B00DBB2CF
:1054E8000133DAB2FB681A72FB681B7ADBB25A1E08
:1054F800D1B2FA6811721A467B681A44FB685B7964
:10550800DBB2591CC8B2F96848711946BB680B442C
:105518001278D2B21A70FB681B7ADBB21A467B6823
:105528001A44FB685B79DBB2591CC8B2F968487148
:105538001946BB680B441278D2B21A70FB685B7AC2
:10554800DBB20133DAB2FB685A72FB685B7ADAB213
:10555800FB68DB7ADBB29A42BDD3FB685B79DBB2CE
:105568000133DAB2FB689A7010E0BB6801331B782C
:10557800DAB2BB68013362F07F02D2B21A70BB683C
:10558800023302221A70FB6804229A7000BF143793
:10559800BD4680BC704780B586B000AFF860B96082
:1055A8007A60BB68DB78DAB2FB68DA71BB68023311
:1055B8001B78DBB2002B02D0FB68FF22DA71FB6894
:1055C800DB79DBB25BB2002B2BDBFB68DB79DBB270
:1055D8005B00DAB2FB685A71FB685B79DBB25A1C74
:1055E800D1B2FA6851711A467B681344BA68527985
:1055F800D2B21A70FB685B79DBB21A467B68134437
:10560800BA681279D2B21A70FB6807229A70FB68DE
:10561800DB79DBB20133FB75FB7D184600F0B6FA87
:1056280010E0BB6801331B78DAB2BB68013362F063
:105638007F02D2B21A70BB68023302221A70FB686A
:1056480004229A7000BF1837BD4680BD80B485B06B
:1056580000AFF860B9607A60BB68DB78DAB2FB68E3
:10566800DA71FB68DB79DAB2BB6805331B78DBB229
:105678001344DAB2FB68DA72FB6807225A71FB68D6
:10568800DB79DBB25B00DAB2FB689A74FB68DB7922
:10569800DAB2FB685A7232E0FB685B79DBB201333D
:1056A800BA681A44FB689B7CDBB219467B680B44DA
:1056B8001278D2B21A70FB685B79DBB21A46BB6803
:1056C8001A44FB689B7CDBB2013379680B4412787F
:1056D800D2B21A70FB689B7CDBB20233DAB2FB6889
:1056E8009A74FB685B79DBB20233DAB2FB685A71F1
:1056F800FB685B7ADBB20133DAB2FB685A72FB688B
:105708005B7ADAB2FB68DB7ADBB29A42C4D3FB6815
:1057180007229A7000BF1437BD4680BC704700004E
:1057280080B500AF1A48FDF781FA0346DAB2194B83
:105738001A72184B5B7CDBB2002B26D1032114486C
:10574800FDF71DFB0346002B1FD101211048FDF773
:1057580016FB0346002B18D100210D48FDF70FFB5F
:105768000346002B11D10B4B5B79DBB21A46094B70
:105778001B7AD9B2084B9954064B5B79DBB20133DB
:10578800DAB2044B5A71FFF7F8FA00BF80BD00BFC8
:10579800004800400C0E00200C0D002080B500AF22
:1057A800144B5B79DAB2134B9B78DBB29A4215D86B
:1057B800104B5B79DBB25A1CD1B20E4A51711A46B2
:1057C8000D4B9B5CDAB20B4B1A720A4B1B7ADBB29D
:1057D8009BB219460948FDF718FA09E040F207316B
:1057E8000648FDF7ABFA40F206310448FDF786FAA1
:1057F80000BF80BD0C0E00200C0D002000480040AA
:1058080080B500AF40F206310948FDF797FA042346
:10581800022202210748FEF70DF84FF4806106487E
:10582800FCF706F9054B00225A7100BF80BD00BF86
:105838000048004000140140001801400C0E0020F0
:1058480080B500AFFFF7A6FA094B5B79DBB2013BE5
:10585800DAB2074B5A71064B5B79DAB2044B9A708D
:10586800034B01225A74FEF77FF800BF80BD00BFCA
:105878000C0E002080B582B000AF0346FB71FB79A7
:105888009BB21846FFF7F4FA034618460837BD4698
:1058980080BD80B582B000AF03460A46FB7113464F
:1058A800BB71FB799AB2BB79002B14BF012300238B
:1058B800DBB219461046FFF797FA00BF0837BD4616
:1058C80080BD80B582B000AF0346FB71FB799BB207
:1058D8001846FFF767FA034618460837BD4680BDE5
:1058E80080B582B000AF03460A46FB711346BB8001
:1058F800FB799BB2BA8811461846FFF7E3FA00BF56
:105908000837BD4680BD80B582B000AF0320FFF7E1
:10591800B1FF0346FB71FB79002B01D0022300E0A5
:10592800032318460837BD4680BD80B582B000AF56
:105938000120FFF79FFF0346FB71FB79002B03D083
:105948000420FDF771FB02E00520FDF76DFB00BFA9
:105958000837BD4680BD80B584B000AF0346FB71F3
:105968000B46BB7113467B71BB791846FFF7A9FF3D
:105978000346FB817B791846FFF7A3FF0346BB81EB
:10598800FA89B989FB791846FDF796FB00BF1037ED
:10599800BD4680BD80B582B000AF0346FB710121D2
:1059A8000D20FFF776FFFB799BB219461320FFF70E
:1059B80097FF00BF0837BD4680BD80B500AF002106
:1059C8000D20FFF766FF00211320FFF789FF00BFB6
:1059D80080BD000080B582B000AF0C20FFF771FFDA
:1059E8000346FB71FB791846FDF7C8FB064BDB7EC7
:1059F80043F02003DAB2044BDA76034AFB79937654
:105A080000BF0837BD4680BD200E002080B582B09B
:105A180000AF0D20FFF72EFF0346002B14BF012314
:105A28000023FB71FB7983F00103DBB2002B01D06B
:105A3800FFF7C3FF00BF0837BD4680BDF0B58DB086
:105A48000AAF0346FB71FB79013B122B00F29480ED
:105A580001A252F823F000BFAD5A0008815B00088C
:105A6800475B0008815B0008815B0008815B0008D8
:105A7800815B0008815B0008815B0008815B00088E
:105A8800815B0008E35A0008B35A0008015B00086C
:105A9800815B0008B95A0008255B0008815B000893
:105AA800655B0008FFF741FF67E0FFF7AFFF64E0C1
:105AB80000211020FFF7EDFE00F0A0F9324E6D46F0
:105AC80006F110040FCC0FC50FCC0FC523682B604F
